:040000006AEF00F0B3
:060008001C825BED06F016
:100018001C80D8CF05F0E8CF06F0E0CF07F0F2A0BB
:100028004DD0F00E8118D8B43CD0100E196EFE0ECB
:100038008A6E81BA02D03D0E31D081BC02D0300E1A
:100048002DD081BE02D0430E29D0FD0E8A6E81BA12
:1000580002D0390E23D081BC02D0380E1FD081BE09
:1000680002D0370E1BD0FB0E8A6E81BA02D0360E34
:1000780015D081BC02D0350E11D081BE02D0340E0D
:100088000DD0F70E8A6E81BA02D0330E07D081BC2C
:1000980002D0320E03D081BE02D0310E196EF00E9E
:1000A8008A6E020E046E040E036EBA0EE82EFED798
:1000B800032EFCD7042EFAD700D0F29007C0E0FF39
:1000C80006C0E8FF05C0D8FF1C90100098EF06F0A6
:10080000004269656E76656E69646F20616C006494
:100810006574656363696F6E206465004469737411
:10082000616E6369613A0073697374656D61206418
:10083000650064697374616E6369617300496E6910
:0B0840006369616E646F00636D00006F
:10084C00F00E936EF19E000E956EC40E946E0A0E11
:10085C00966E700ED36E030E156E980EE82EFED7A4
:10086C00152EFCD7200EAC6E900EAB6E000EB86E33
:10087C000C0EAF6E0B0ED56EF2940B0ED76EDC0E0B
:10088C00D66EF28AF28ED58E900ECD6E6F86000EDD
:10089C00CC6E040ED7EC06F065EC05F0800EEEEC99
:1008AC0006F0010E0D6E0FEC06F0C00EEEEC06F02D
:1008BC00270E0D6E0FEC06F0100E166E390E156E1F
:1008CC000E0EE82EFED7152EFCD7162EFAD7F9EC05
:1008DC0006F00F0E0D6E0FEC06F0C00EEEEC06F0EF
:1008EC00320E0D6E0FEC06F0100E166E390E156EE4
:1008FC000E0EE82EFED7152EFCD7162EFAD7F9ECD5
:10090C0006F03D0E0D6E0FEC06F0060E166E130E75
:10091C00156EAE0EE82EFED7152EFCD7162EFAD776
:10092C002E0EE3EC06F0060E166E130E156EAE0EC2
:10093C00E82EFED7152EFCD7162EFAD72E0EE3EC8A
:10094C0006F0060E166E130E156EAE0EE82EFED7C2
:10095C00152EFCD7162EFAD72E0EE3EC06F0060E4B
:10096C00166E130E156EAE0EE82EFED7152EFCD796
:10097C00162EFAD7F9EC06F01C0E0D6E0FEC06F0E5
:10098C00040EBD6E000ECF6E000ECE6E9E94828253
:10099C00060EE82EFED700D0829282A4FED7CD8020
:1009AC009EA4FED7CD90BECF08F0BFCF09F0000EAD
:1009BC000B6E3A0E0A6EE6EC05F00850186E84B217
:1009CC0007D0000E126EC80E116EF4EC04F0D8D7DE
:1009DC0017C011F0126AF4EC04F0D2D711C013F066
:1009EC0012C014F0440E0AEC07F0690E0AEC07F082
:1009FC00730E0AEC07F0740E0AEC07F0610E0AECA9
:100A0C0007F06E0E0AEC07F0630E0AEC07F0690EA5
:100A1C000AEC07F0610E0AEC07F03A0E0AEC07F04C
:100A2C00200E0AEC07F0640E0C6E18507BEC06F0EE
:100A3C00300F0AEC07F00A0E0C6E640E086E18509C
:100A4C00AEEC06F07BEC06F0300F0AEC07F00A0E69
:100A5C00086E1850AEEC06F0300F0AEC07F0630E7F
:100A6C000AEC07F06D0E0AEC07F0200E0AEC07F00A
:100A7C00C70EEEEC06F0640E0C6E18507BEC06F014
:100A8C00300FE3EC06F00A0E0C6E640E086E185074
:100A9C00AEEC06F07BEC06F0300FE3EC06F00A0E41
:100AAC00086E1850AEEC06F0300FE3EC06F0470E73
:100ABC000D6E0FEC06F0200EE3EC06F012008C9499
:100ACC00040E1B18D8A404D08C500F0B300901D085
:100ADC003F0E8C6E03EC07F0010EB3EC05F0040E28
:100AEC001B18D8A404D08C500F0B300901D03F0E2A
:100AFC008C6E03EC07F0030EB3EC05F0040E1B1820
:100B0C00D8A404D08C500F0B300901D03F0E8C6E42
:100B1C0003EC07F0040EB3EC05F0040E1B18D8A47C
:100B2C0011D08C500F0B20098C6E03EC07F0040EC7
:100B3C00B3EC05F02F0E38EC06F003EC07F0040EC6
:100B4C00B3EC05F0F9EC06F00F0E38EC06F003EC04
:100B5C0007F0040EB3EC05F01200096E23D0620E00
:100B6C00086E660EE82EFED7082EFCD71200070E74
:100B7C00086E7D0EE82EFED7082EFCD700F0050E71
:100B8C00086E260EE82EFED7082EFCD700D01200D9
:100B9C00A60EE82EFED700D01200420EE82EFED78D
:100BAC0000D012000950010AD8B4D9D7030AD8B41E
:100BBC00DED7010AD8B4ECD7070AD8A41200EDD7B7
:100BCC00000E0D6E000E0C6E0A500B10D8B41CD01B
:100BDC00010E0E6E04D0D8900A360B360E2A0BAED0
:100BEC00FAD7D8900C360D360A50085C0B500958C1
:100BFC00D8A005D00A50085E0B50095A0C80D8902A
:100C0C000B320A320E2EEDD70CC008F00DC009F0D5
:100C1C001200000E106E000E0F6E19D00D500F2426
:100C2C000E6E0EC0F6FF080EF76E0800F5500009A8
:100C3C00D8B412000D500F240E6E0EC0F6FF080E25
:100C4C00F76E0800F550E3EC06F00F4A102A0DC0C1
:100C5C0008F0C3EC06F008500F5C09501058D8B0DF
:100C6C001200DCD70B6E040E1B18D8A417D00BC0C7
:100C7C000AF0F00E0A168C500F0B0A108C6E03EC57
:100C8C0007F0010EB3EC05F00BC00AF00A3AF00EB7
:100C9C000A168C500F0B0A108C6E1200080E1B18C3
:100CAC00D8A412000BC08CFF12000600F2A40AD0CC
:100CBC00F29484B402D0848401D084940B0ED76E49
:100CCC00DC0ED66E9EAA0FD010EC07F0176E020E3B
:100CDC00026E040E016EBA0EE82EFED7012EFCD762
:100CEC00022EFAD700D01C9211000D6E000E0F6E62
:100CFC000C50D8B415D0010E0E6E03D0D8900C3613
:100D0C000E2A0CAEFBD7D8900F360C500D5CD8A029
:100D1C0003D00C500D5E0F80D8900C320E2EF3D7F2
:100D2C000F501200280EF66E0E0EF76E000EF86EB7
:100D3C000900F5CF1AF00900F5CF1BF0196A186AF3
:100D4C00176A1C901C92000EF86E000126EF04F03E
:100D5C00096E080E0A6E000E0B6ED89009340B3417
:100D6C000B6ED890093608500B5CD8A002D00850F6
:100D7C000B5E0A2EF2D70B50120008C00AF001D0FD
:100D8C000A2A0AC0F6FF080EF76E0800F550000993
:100D9C00D8A4F6D708500A5C086E096A08BE090682
:100DAC001200086E040E0818D8B404D0080E0818E7
:100DBC00D8A4120008C01BF012000C6E8C840C50CE
:100DCC0038EC06F003EC07F0040EB3EC05F012005F
:100DDC000C6E8C940C5038EC06F003EC07F0040EFF
:100DEC00B3EC05F012008C94010E38EC06F003EC19
:100DFC0007F0020EB3EC05F012008C86420EE82EC2
:100E0C00FED700D08C961200086EACA2FED708C09C
:0E0E1C00ADFF12009EAAFED7AE501200C8080D
:020000040020DA
:08000000FFFFFFFFFFFFFFFF00
:020000040030CA
:0E00000000091F1EFF8181FF0FC00FE00F409F
:00000001FF
