:0400000007EF00F016
:100008003E8260ED01F085EF06F04EEC07F0F19EC0
:100018009380000E956ED20E946E700ED36E030E02
:100028002C6E980EE82EFED72C2EFCD7200EAC6E28
:10003800900EAB6E000EB86E0C0EAF6E0F0EC16E4A
:100048009D8A9E9AF28EF288F292F18C900ECD6E75
:100058006D966F860C0EBD6E020ECA6E000ECC6ECB
:10006800F90ECB6E000EBE6E040E00EC07F0A0EC8D
:1000780003F0800E0CEC07F08C0E1F6E7F0E206EC6
:1000880048EC05F0C00E0CEC07F0CA0E1F6E7F0E90
:10009800206E48EC05F0100E2D6E390E2C6E0E0EEB
:1000A800E82EFED72C2EFCD72D2EFAD74EEC07F0D3
:1000B8009A0E1F6E7F0E206E48EC05F0C00E0CECF9
:1000C80007F0D50E1F6E7F0E206E48EC05F0100E5F
:1000D8002D6E390E2C6E0E0EE82EFED72C2EFCD768
:1000E8002D2EFAD74EEC07F05C0E1F6E7F0E206E99
:1000F80048EC05F0C00E0CEC07F03D0E1F6E7F0EAD
:10010800206E48EC05F0330E206E000E226E050EB0
:10011800216ED6EC02F0FC0E1F6E7F0E206E48ECAE
:1001280005F0200E22EC07F00E0E1B6E7F0E1C6EE3
:10013800B0EC06F02FC020F030C021F0000E236E86
:10014800640E226EEEEC03F02050300F70EC07F0D6
:10015800000E1D6E640E1C6E2FC01AF030C01BF00E
:1001680072EC04F01AC020F01BC021F0000E236EC0
:100178000A0E226EEEEC03F02050300F70EC07F000
:100188002FC01AF030C01BF0000E1D6E0A0E1C6E38
:1001980072EC04F01A50300F70EC07F0F10E1B6E81
:1001A8007F0E1C6EB0EC06F0100E2D6E390E2C6E04
:1001B8000E0EE82EFED72C2EFCD72D2EFAD74EEC9D
:1001C80007F0E00E1F6E7F0E206E48EC05F0060E5D
:1001D8002D6E130E2C6EAE0EE82EFED72C2EFCD7ED
:1001E8002D2EFAD72E0E22EC07F0060E2D6E130ECA
:1001F8002C6EAE0EE82EFED72C2EFCD72D2EFAD75D
:100208002E0E22EC07F0060E2D6E130E2C6EAE0E7F
:10021800E82EFED72C2EFCD72D2EFAD72E0E22EC48
:1002280007F0060E2D6E130E2C6EAE0EE82EFED7BE
:100238002C2EFCD72D2EFAD74EEC07F0BF0E1F6ED2
:100248007F0E206E48EC05F0CA84040EBA6E000ECC
:10025800CF6E000ECE6EA1908280060EE82EFED7DD
:1002680000D0829082A2FED7CD80A1A0FED7CD90EB
:10027800BBCF1FF0BCCF20F0000E226E3A0E216ECD
:10028800AAEC05F01F50316E2FC026F030C027F0C1
:1002980023EC02F031502C6E2D6A2C502F5C30501C
:1002A800800A2E6E2D50800A2E58D8A002D07D0EBE
:1002B80001D0000EBE6EC9D70600D9CF12F0DACF32
:1002C80013F0F3CF14F0F4CF15F0F6CF16F0F7CF04
:1002D80017F0F8CF18F0F5CF19F0F2A29DD00B0E59
:1002E800116E260E106E5E0EE82EFED7102EFCD76D
:1002F800112EFAD758EC07F07D0E066E7F0E076EAA
:1003080079EC05F0C00E43EC07F03D0E066E7F0E4B
:10031800076E79EC05F0330E076E000E096E050EB8
:10032800086E3BEC03F0FC0E066E7F0E076E79EC50
:1003380005F0200E38EC07F0150E116E4B0E106EFE
:10034800BE0EE82EFED7102EFCD7112EFAD700D0FD
:1003580058EC07F06D0E066E7F0E076E79EC05F00F
:10036800C00E43EC07F0B30E066E7F0E076E79ECF5
:1003780005F0E50E026E7E0E036EC5EC06F02FC08A
:1003880007F030C008F0000E0A6E640E096E30ECFB
:1003980004F00750300F76EC07F0000E046E640E80
:1003A800036E2FC001F030C002F0AAEC04F001C0C7
:1003B80007F002C008F0000E0A6E0A0E096E30EC53
:1003C80004F00750300F76EC07F02FC001F030C072
:1003D80002F0000E046E0A0E036EAAEC04F001503F
:1003E800300F76EC07F0EA0E026E7F0E036EC5EC56
:1003F80006F00B0E116E260E106E5E0EE82EFED75E
:10040800102EFCD7112EFAD758EC07F0BF0E066E47
:100418007F0E076E79EC05F0F29219C0F5FF18C04F
:10042800F8FF17C0F7FF16C0F6FF15C0F4FF14C099
:10043800F3FF13C0DAFF12C0D9FF3E92110026C0A5
:100448002AF027C02BF0300E1B6E7F0E1C6EB0EC0E
:1004580006F026C01FF027C020F0000E226E640EA2
:10046800216EAAEC05F01F50300F70EC07F0000E5B
:100478001D6E640E1C6E26C01AF027C01BF019EC06
:1004880006F01AC01FF01BC020F0000E226E0A0EE4
:10049800216EAAEC05F01F50300F70EC07F026C053
:1004A8001AF027C01BF0000E1D6E0A0E1C6E19EC08
:1004B80006F01A50300F70EC07F0F70E1B6E7F0E27
:1004C8001C6EB0EC06F0A70E1B6E7F0E1C6EB0EC17
:1004D80006F0640E1E6E31503AEC06F0300F70ECE8
:1004E80007F00A0E1E6E640E1A6E31509BEC06F071
:1004F8003AEC06F0300F70EC07F00A0E1A6E315025
:100508009BEC06F0300F70EC07F0F70E1B6E7F0EB9
:100518001C6EB0EC06F03150286E296A2850265C13
:1005280029502758D8A006D0460E1B6E7F0E1C6E89
:10053800B0EC06F00A0E70EC07F0C70E0CEC07F0F2
:10054800640E1E6E31503AEC06F0300F22EC07F0C4
:100558000A0E1E6E640E1A6E31509BEC06F03AECD1
:1005680006F0300F22EC07F00A0E1A6E31509BECA1
:1005780006F0300F22EC07F0FC0E1F6E7F0E206E87
:1005880048EC05F0200E22EC07F0030E296E080E49
:10059800286E770EE82EFED7282EFCD7292EFAD7FC
:1005A80000F01200000E266E000E256E000E306E52
:1005B800000E2F6E000E286E000E276E17EC07F047
:1005C8001A50246E20502724D96EDA6A24C0DFFF1F
:1005D80020502724D96EDA6ADF50236ED00E2324E8
:1005E800256E266AFF0E2622245022EC07F027509B
:1005F8002810D8A415D025C01AF026C01BF0000E6C
:100608001D6E640E1C6EDAEC06F01AC025F01BC0D5
:1006180026F025502F242F6E26503020306E14D00F
:1006280027042810D8A40BD025C01AF026C01BF028
:10063800000E1D6E0A0E1C6EDAEC06F0E6D7020EEE
:1006480027182810D8B4E5D7274A282A28BEB6D7AD
:10065800285004E1030E275CD8A0B0D720502124ED
:10066800D96EDA6AFE0ED926000EDF6E1200000E71
:100678000D6E000E0C6E000E306E000E2F6E000E0A
:100688000F6E000E0E6E2DEC07F001500B6E07502A
:100698000E24D96EDA6A0BC0DFFF07500E24D96E1C
:1006A800DA6ADF500A6ED00E0A240C6E0D6AFF0E4D
:1006B8000D220B5038EC07F00E500F10D8A415D0AF
:1006C8000CC001F00DC002F0000E046E640E036E43
:1006D800EDEC06F001C00CF002C00DF00C502F2418
:1006E8002F6E0D503020306E14D00E040F10D8A489
:1006F8000BD00CC001F00DC002F0000E046E0A0E03
:10070800036EEDEC06F0E6D7020E0E180F10D8B403
:10071800E5D70E4A0F2A0FBEB6D70F5004E1030ED5
:100728000E5CD8A0B0D707500824D96EDA6AFE0E3E
:10073800D926000EDF6E12008C94040E3D18D8A442
:1007480004D08C500F0B300901D03F0E8C6E62EC38
:1007580007F0010EE2EC04F0040E3D18D8A404D012
:100768008C500F0B300901D03F0E8C6E62EC07F0F5
:10077800030EE2EC04F0040E3D18D8A404D08C500B
:100788000F0B300901D03F0E8C6E62EC07F0040E9F
:10079800E2EC04F0040E3D18D8A411D08C500F0BD5
:1007A80020098C6E62EC07F0040EE2EC04F02F0EC8
:1007B800D3EC05F062EC07F0040EE2EC04F04EEC2A
:1007C80007F00F0ED3EC05F062EC07F0040EE2EC34
:1007D80004F01200000E256E23AE06D0226C231EF4
:1007E800D8B0232A010E256E21AE06D0206C211E1A
:1007F800D8B0212A010E251A000E276E000E266E8B
:1008080022502310D8B41CD0010E246E04D0D890E6
:1008180022362336242A23AEFAD7D890263627360E
:100828002250205C23502158D8A005D02250205EA9
:100838002350215A2680D89023322232242EEDD7F5
:100848002550D8B404D0266C271ED8B0272A26C035
:1008580020F027C021F01200000E0C6E0AAE06D060
:10086800096C0A1ED8B00A2A010E0C6E08AE06D012
:10087800076C081ED8B0082A010E0C1A000E0E6E5E
:10088800000E0D6E09500A10D8B41CD0010E0B6E64
:1008980004D0D89009360A360B2A0AAEFAD7D8906F
:1008A8000D360E360950075C0A500858D8A005D0F6
:1008B8000950075E0A50085A0D80D8900A3209324A
:1008C8000B2EEDD70C50D8B404D00D6C0E1ED8B03A
:1008D8000E2A0DC007F00EC008F01200000E1F6EA1
:1008E8001BAE06D01A6C1B1ED8B01B2A010E1F6E39
:1008F8001DAE04D01C6C1D1ED8B01D2A1C501D1026
:10090800D8B418D0010E1E6E04D0D8901C361D36EF
:100918001E2A1DAEFAD71C501A5C1D501B58D8A0B1
:1009280004D01C501A5E1D501B5AD8901D321C3220
:100938001E2EF1D71F50D8B404D01A6C1B1ED8B085
:100948001B2A1AC01AF01BC01BF01200000E066EFC
:1009580002AE06D0016C021ED8B0022A010E066E45
:1009680004AE04D0036C041ED8B0042A035004104B
:10097800D8B418D0010E056E04D0D89003360436CA
:10098800052A04AEFAD70350015C04500258D8A0D7
:1009980004D00350015E0450025AD8900432033246
:1009A800052EF1D70650D8B404D0016C021ED8B079
:1009B800022A01C001F002C002F012001B6E23D00F
:1009C800620E1A6E660EE82EFED71A2EFCD712009B
:1009D800070E1A6E7D0EE82EFED71A2EFCD700F0F1
:1009E800050E1A6E260EE82EFED71A2EFCD700D05A
:1009F8001200A60EE82EFED700D01200420EE82EF6
:100A0800FED700D012001B50010AD8B4D9D7030A68
:100A1800D8B4DED7010AD8B4ECD7070AD8A4120094
:100A2800EDD7026E23D0620E016E660EE82EFED759
:100A3800012EFCD71200070E016E7D0EE82EFED7A0
:100A4800012EFCD700F0050E016E260EE82EFED70B
:100A5800012EFCD700D01200A60EE82EFED700D03B
:100A68001200420EE82EFED700D012000250010AF2
:100A7800D8B4D9D7030AD8B4DED7010AD8B4ECD78A
:100A8800070AD8A41200EDD7000E246E000E236EBC
:100A98001FD023501F24216E24502020226E21C0F5
:100AA800F6FF22C0F7FF0800F5500009D8B412007D
:100AB80023501F24216E24502020226E21C0F6FFCF
:100AC80022C0F7FF0800F55022EC07F0234A242A39
:100AD8001FC01AF020C01BF057EC06F01A50235C18
:100AE8001B502458D8B01200D4D7000E0B6E000E3D
:100AF8000A6E1FD00A500624086E0B500720096E94
:100B080008C0F6FF09C0F7FF0800F5500009D8B47F
:100B180012000A500624086E0B500720096E08C000
:100B2800F6FF09C0F7FF0800F55038EC07F00A4A4D
:100B38000B2A06C001F007C002F06EEC06F0015067
:100B48000A5C02500B58D8B01200D4D7000E246E9D
:100B5800000E236E21502210D8B41CD0010E256E31
:100B680004D0D89021362236252A22AEFAD7D8903A
:100B78002336243621501F5C22502058D8A005D097
:100B880021501F5E2250205A2380D89022322132D1
:100B9800252EEDD723C01FF024C020F012001D6EB3
:100BA800040E3D18D8A417D01DC01CF0F00E1C165A
:100BB8008C500F0B1C108C6E62EC07F0010EE2ECEF
:100BC80004F01DC01CF01C3AF00E1C168C500F0BC4
:100BD8001C108C6E1200080E3D18D8A412001DC0FF
:100BE8008CFF1200046E040E3D18D8A417D004C060
:100BF80003F0F00E03168C500F0B03108C6E69EC8B
:100C080007F0010E15EC05F004C003F0033AF00EEE
:100C180003168C500F0B03108C6E1200080E3D1833
:100C2800D8A4120004C08CFF12001C501D10D8B4A8
:100C380018D0010E1E6E04D0D8901C361D361E2A00
:100C48001DAEFAD71C501A5C1D501B58D8A004D0F2
:100C58001C501A5E1D501B5AD8901D321C321E2E75
:100C6800F1D71AC01AF01BC01BF012001F6E000E3D
:100C7800216E1E50D8B415D0010E206E03D0D89026
:100C88001E36202A1EAEFBD7D89021361E501F5C78
:100C9800D8A003D01E501F5E2180D8901E32202E6F
:100CA800F3D7215012001AC01CF01BC01DF002D04F
:100CB8001C4A1D2A1CC0F6FF1DC0F7FF0800F5508E
:100CC8000009D8A4F5D71A501C5C1A6E1B501D5881
:100CD8001B6E120001C003F002C004F002D0034AE8
:100CE800042A03C0F6FF04C0F7FF0800F550000906
:100CF800D8A4F5D70150035C016E02500458026E67
:100D08001200F80EF66E0E0EF76E000EF86E090061
:100D1800F5CF3DF000EE2FF00E0EEE6AE806FDE18D
:100D28003E903E92000EF86E000109EF00F01B6E37
:100D3800080E1C6E000E1D6ED8901B341D341D6EDF
:100D4800D8901B361A501D5CD8A002D01A501D5ED0
:100D58001C2EF2D71D5012000AD01BC0F6FF1CC073
:100D6800F7FF0800F55070EC07F01B4A1C2A1BC05F
:100D7800F6FF1CC0F7FF0800F5500009D8B41200B0
:100D8800ECD70AD002C0F6FF03C0F7FF0800F55001
:100D980076EC07F0024A032A02C0F6FF03C0F7FF09
:100DA8000800F5500009D8B41200ECD71A501C02FC
:100DB800F3CF1EF0F4CF1FF01A501D02F3501F2678
:100DC8001B501C02F3501F261EC01AF01FC01BF038
:100DD800120001500302F3CF05F0F4CF06F00150E2
:100DE8000402F350062602500302F350062605C0FB
:100DF80001F006C002F012001A6E040E1A18D8B4D8
:100E080004D0080E1A18D8A412001AC03DF0120017
:100E18001E6E8C941E50D3EC05F062EC07F0040EA5
:100E2800E2EC04F012009EAAFED7ABA202D0AB9867
:100E3800AB889E9AAECF1AF01B6A12001E6E8C8485
:100E48001E50D3EC05F062EC07F0040EE2EC04F05F
:100E580012009EAAFED7ABA202D0AB98AB889E9A8E
:100E6800AECF01F0026A1200056E8C840550F6ECD4
:100E780005F069EC07F0040E15EC05F01200056E9C
:100E88008C940550F6EC05F069EC07F0040E15ECAF
:100E980005F012008C94010ED3EC05F062EC07F01B
:100EA800020EE2EC04F012008C94010EF6EC05F050
:100EB80069EC07F0020E15EC05F012008C86420E64
:100EC800E82EFED700D08C9612008C86420EE82EB3
:100ED800FED700D08C9612001A6EACA2FED71AC0AC
:100EE800ADFF1200016EACA2FED701C0ADFF12002B
:010EF80008F1
:107EE400000A4E756576612064697374616E636916
:107EF4006120646520616C61726D6120636F6E66E0
:107F0400696775726164613A200044697374616ED3
:107F140063696120646520616C61726D6120636FC7
:107F24006E66696775726164613A200044697374AE
:107F3400616E63696120646520616C61726D613A90
:107F44002000A1A1A1416C61726D6120416374693B
:107F54007661646121212100496E67726573652031
:107F6400446973742E206465004E756576612044FF
:107F7400697374616E636961004E7565766120642E
:107F84006973742E206465004269656E76656E6956
:107F9400646F20616C00646574656363696F6E204F
:107FA40064650044697374616E6369613A200043D7
:107FB4006F6E6669677572616461004469737461A8
:107FC4006E6369613A0073697374656D61206465F9
:107FD4000064697374616E6369617300496E6963F7
:107FE40069616E646F00636D20200A0A00636D206E
:0C7FF4000A0A00636D202000636D00008D
:020000040020DA
:08000000FFFFFFFFFFFFFFFF00
:020000040030CA
:0E00000000091F1EFF8181FF0FC00FE00F409F
:00000001FF
