:0400000007EF00F016
:0A0008002A8265ED06F0D0EF07F044
:10080000004269656E76656E69646F20616C006494
:100810006574656363696F6E206465004469737411
:10082000616E6369613A0073697374656D61206418
:10083000650064697374616E6369617300496E6910
:0B0840006369616E646F00636D00006F
:10084C0028EC08F0F00E936E000E926EF19E000EE6
:10085C00956EC20E946E0A0E966E700ED36E030ECB
:10086C00236E980EE82EFED7232EFCD7200EAC6EEE
:10087C00900EAB6E000EB86E0C0EAF6E0F0EC16EFE
:10088C00F290F2869D8A9E9AF28E900ECD6E6F86B5
:10089C000C0EBD6E020ECA6E000ECC6EF90ECB6E37
:1008AC00000EBE6E040EFBEC07F08DEC05F0800E16
:1008BC0012EC08F0010E196E1950D8A4080E1A6E1D
:1008CC00DBEC05F0C00E12EC08F0270E196E195077
:1008DC00D8A4080E1A6EDBEC05F0100E246E390E3F
:1008EC00236E0E0EE82EFED7232EFCD7242EFAD71D
:1008FC0028EC08F00F0E196E1950D8A4080E1A6EB9
:10090C00DBEC05F0C00E12EC08F0320E196E19502B
:10091C00D8A4080E1A6EDBEC05F0100E246E390EFE
:10092C00236E0E0EE82EFED7232EFCD7242EFAD7DC
:10093C0028EC08F03D0E196E1950D8A4080E1A6E4A
:10094C00DBEC05F0060E246E130E236EAE0EE82EB5
:10095C00FED7232EFCD7242EFAD72E0E07EC08F048
:10096C00060E246E130E236EAE0EE82EFED7232E2B
:10097C00FCD7242EFAD72E0E07EC08F0060E246EA8
:10098C00130E236EAE0EE82EFED7232EFCD7242E8C
:10099C00FAD72E0E07EC08F0060E246E130E236EFB
:1009AC00AE0EE82EFED7232EFCD7242EFAD728EC39
:1009BC0008F01C0E196E1950D8A4080E1A6EDBEC38
:1009CC0005F0CA84040EBA6E000ECF6E000ECE6E09
:1009DC00A1908280060EE82EFED700D0829082A2D3
:1009EC00FED7CD80A1A0FED7CD90BBCF14F0BCCF4D
:1009FC0015F0000E176E3A0E166E02EC07F014503E
:100A0C00266E28C01FF0206A15EC05F02650285CD5
:100A1C00D8A002D07D0E01D0000EBE6ED3D71FC061
:100A2C0021F020C022F0440E40EC08F0690E40EC9E
:100A3C0008F0730E40EC08F0740E40EC08F0610EF8
:100A4C0040EC08F06E0E40EC08F0630E40EC08F041
:100A5C00690E40EC08F0610E40EC08F03A0E40ECE8
:100A6C0008F0200E40EC08F0640E186E2650B3EC23
:100A7C0007F0300F40EC08F00A0E186E640E146E7E
:100A8C002650E6EC07F0B3EC07F0300F40EC08F022
:100A9C000A0E146E2650E6EC07F0300F40EC08F00E
:100AAC00630E40EC08F06D0E40EC08F0200E40ECAC
:100ABC0008F00A0E40EC08F0C70E12EC08F0640EB9
:100ACC00186E2650B3EC07F0300F07EC08F00A0E46
:100ADC00186E640E146E2650E6EC07F0B3EC07F0BB
:100AEC00300F07EC08F00A0E146E2650E6EC07F0F7
:100AFC00300F07EC08F0470E196E1950D8A4080EE9
:100B0C001A6EDBEC05F0200E07EC08F012008C944A
:100B1C00040E2918D8A404D08C500F0B300901D026
:100B2C003F0E8C6E32EC08F0010E9CEC06F0040EBD
:100B3C002918D8A404D08C500F0B300901D03F0ECB
:100B4C008C6E32EC08F0030E9CEC06F0040E2918A7
:100B5C00D8A404D08C500F0B300901D03F0E8C6EF2
:100B6C0032EC08F0040E9CEC06F0040E2918D8A404
:100B7C0011D08C500F0B20098C6E32EC08F0040E47
:100B8C009CEC06F02F0E2BEC07F032EC08F0040E68
:100B9C009CEC06F028EC08F00F0E2BEC07F032EC76
:100BAC0008F0040E9CEC06F01200000E1E6E000EF7
:100BBC001D6E33D01D5019241B6E1E501A201C6E36
:100BCC001BC0F6FF1CC0F7FFF86A070EF76403D0D2
:100BDC000800F55005D0F6CFE9FFF7CFEAFFEF504C
:100BEC000009D8B412001D5019241B6E1E501A2077
:100BFC001C6E1BC0F6FF1CC0F7FFF86A070EF764EB
:100C0C0003D00800F55005D0F6CFE9FFF7CFEAFF87
:100C1C00EF5007EC08F01D4A1E2A19C014F01AC038
:100C2C0015F071EC07F014501D5C15501E58D8B01F
:100C3C001200C0D7000E0B6E000E0A6E33D00A5095
:100C4C000624086E0B500720096E08C0F6FF09C079
:100C5C00F7FFF86A070EF76403D00800F55005D0CB
:100C6C00F6CFE9FFF7CFEAFFEF500009D8B4120036
:100C7C000A500624086E0B500720096E08C0F6FFB8
:100C8C0009C0F7FFF86A070EF76403D00800F550A7
:100C9C0005D0F6CFE9FFF7CFEAFFEF501DEC08F0D7
:100CAC000A4A0B2A06C001F007C002F092EC07F0CA
:100CBC0001500A5C02500B58D8B01200C0D7060085
:100CCC00E9CF0EF0EACF0FF0F6CF10F0F7CF11F01E
:100CDC00F8CF12F0F5CF13F09EAA1AD0010E256EA4
:100CEC0046EC08F00150286E28500C6E0D6A0CC0B2
:100CFC0006F00DC007F020EC06F00B0E0D6E260E64
:100D0C000C6E5E0EE82EFED70C2EFCD70D2EFAD7ED
:100D1C0013C0F5FF12C0F8FF11C0F7FF10C0F6FFAB
:100D2C000FC0EAFF0EC0E9FF2A921100156E23D006
:100D3C00620E146E660EE82EFED7142EFCD712002F
:100D4C00070E146E7D0EE82EFED7142EFCD700F085
:100D5C00050E146E260EE82EFED7142EFCD700D0EE
:100D6C001200A60EE82EFED700D01200420EE82E7E
:100D7C00FED700D012001550010AD8B4D9D7030AF7
:100D8C00D8B4DED7010AD8B4ECD7070AD8A412001D
:100D9C00EDD7026E23D0620E016E660EE82EFED7E2
:100DAC00012EFCD71200070E016E7D0EE82EFED729
:100DBC00012EFCD700F0050E016E260EE82EFED794
:100DCC00012EFCD700D01200A60EE82EFED700D0C4
:100DDC001200420EE82EFED700D012000250010A7B
:100DEC00D8B4D9D7030AD8B4DED7010AD8B4ECD713
:100DFC00070AD8A41200EDD7000E196E000E186E5B
:100E0C0016501710D8B41CD0010E1A6E04D0D890FE
:100E1C00163617361A2A17AEFAD7D890183619364E
:100E2C001650145C17501558D8A005D01650145EE7
:100E3C001750155A1880D890173216321A2EEDD733
:100E4C0018C014F019C015F01200176E040E2918F2
:100E5C00D8A417D017C016F0F00E16168C500F0B26
:100E6C0016108C6E32EC08F0010E9CEC06F017C0DC
:100E7C0016F0163AF00E16168C500F0B16108C6ED0
:100E8C001200080E2918D8A4120017C08CFF1200EB
:100E9C00046E040E2918D8A417D004C003F0F00E69
:100EAC0003168C500F0B03108C6E39EC08F0010EEE
:100EBC00CFEC06F004C003F0033AF00E03168C508E
:100ECC000F0B03108C6E1200080E2918D8A41200F8
:100EDC0004C08CFF120014C016F015C017F002D01D
:100EEC00164A172A16C0F6FF17C0F7FFF86A070E46
:100EFC00F76403D00800F55005D0F6CFE9FFF7CF23
:100F0C00EAFFEF500009D8A4EBD71450165C146E0E
:100F1C0015501758156E120001C003F002C004F0F2
:100F2C0002D0034A042A03C0F6FF04C0F7FFF86A94
:100F3C00070EF76403D00800F55005D0F6CFE9FF93
:100F4C00F7CFEAFFEF500009D8A4EBD70150035CB0
:100F5C00016E02500458026E1200196E000E1B6EC8
:100F6C001850D8B415D0010E1A6E03D0D89018367C
:100F7C001A2A18AEFBD7D8901B361850195CD8A07B
:100F8C0003D01850195E1B80D89018321A2EF3D744
:100F9C001B501200980EF66E100EF76E000EF86EC7
:100FAC000900F5CF28F00900F5CF29F0276A266A49
:100FBC00256A2A902A92000EF86E000126EF04F0A2
:100FCC00156E080E166E000E176ED8901534173469
:100FDC00176ED89015361450175CD8A002D0145048
:100FEC00175E162EF2D717501200146E040E14183A
:100FFC00D8B404D0080E1418D8A4120014C029F0C8
:10100C001200186E8C8418502BEC07F032EC08F0A0
:10101C00040E9CEC06F01200186E8C9418502BECFD
:10102C0007F032EC08F0040E9CEC06F01200056E92
:10103C008C8405504EEC07F039EC08F0040ECFEC24
:10104C0006F012008C94010E2BEC07F032EC08F039
:10105C00020E9CEC06F012008C86420EE82EFED797
:10106C0000D08C9612008C86420EE82EFED700D053
:10107C008C961200146EACA2FED714C0ADFF1200F9
:0E108C009EAAFED7AECF01F0026A12000A083B
:020000040020DA
:08000000FFFFFFFFFFFFFFFF00
:020000040030CA
:0E00000000091F1EFF8181FF0FC00FE00F409F
:00000001FF
